:100000000C9454010C9419060C9471010C94710118
:100010000C943E060C9498060C9471010C9471019A
:100020000C9471010C9471010C9471010C94710188
:100030000C9471010C9471010C9466070C9471017D
:100040000C9471010C9471010C9471010C94710168
:100050000C9471010C9471010C9471010C94710158
:100060000C9471010C947101050000000000050062
:10007000005F000005000700070005147F147F14CF
:1000800005242A7F2A12052313086462053649567F
:10009000205005080703000005001C224100050050
:1000A00041221C000514083E08140508083E0808F3
:1000B0000500B07000000508080808080500606029
:1000C0000000052010080402053E5149453E050088
:1000D000427F4000057249494946052141494D3357
:1000E000051814127F10052745454539053C4A4936
:1000F0004931054121110907053649494936054667
:100100004949291E05000014000005004034000084
:100110000508142241000514141414140541221476
:100120000800050201590906053E415D594E057C4E
:100130001211127C057F49494936053E4141412251
:10014000057F4141413E057F49494949057F0909EC
:100150000909053E41415173057F0808087F0500E4
:10016000417F4100052040413F01057F08142241A5
:10017000057F40404040057F020C027F057F040858
:10018000107F053E4141413E057F09090906053EB4
:100190004151215E057F0919294605264949493201
:1001A0000501017F0101053F4040403F051F204000
:1001B000201F053F4038403F0563140814630503C2
:1001C0000478040305615149454305007F4141001E
:1001D000050204081020050041417F0005040201CA
:1001E000020405404040404005070B000000052088
:1001F00054547840057F2844443805384444442802
:1002000005384444287F0538545454180500087EA6
:1002100009020518A4A49C78057F08040478050049
:10022000447D4000052040403D00057F10284400EB
:100230000500417F4000057C04780478057C0804B3
:10024000047805384444443805FC1824241805185B
:10025000242418FC057C080404080548545454243C
:100260000504043F4424053C4040207C051C2040FC
:10027000201C053C4030403C054428102844054CD7
:100280009090907C054464544C440500083641002D
:10029000050000770000050041360800050402044F
:1002A000080405007F417F0011241FBECFEFD8E076
:1002B000DEBFCDBF11E0A0E0B1E0E2EAFBE102C0A9
:1002C00005900D92A235B107D9F725E0A2E5B1E07E
:1002D00001C01D92A637B207E1F70E94C5070C9432
:1002E000CF0D0C9400000F931F93CF93DF93CDB7E6
:1002F000DEB766970FB6F894DEBF0FBECDBF8C0198
:100300000E940309F8018081882309F4A4C10E9496
:100310008E0820E048E065E088E690E00E9417093A
:100320002091020130910301369527953695279546
:1003300036952795A5ECB0E20E94D60A9295829553
:100340008F7089279F7089279F938F930BE111E00E
:100350001F930F93CE0101969F938F930E94E50AFE
:100360002091040130910501369527953695279502
:1003700036952795A5ECB0E20E94D60A9295829513
:100380008F7089279F7089279F938F931F930F9357
:10039000CE0103969F938F930E94E50A2091060158
:1003A00030910701369527953695279536952795EF
:1003B000A5ECB0E20E94D60A929582958F708927AB
:1003C0009F7089279F938F931F930F93CE0105965C
:1003D0009F938F930E94E50A80915F019091600145
:1003E000A0916101B0916201BF93AF939F938F93EE
:1003F0001F930F93CE0107969F938F930E94E50A58
:10040000209178003091790040E050E068E17CE98B
:100410008FE090E00E94B70ADA01C901885E93403C
:10042000A109B109BF93AF939F938F931F930F932C
:10043000CE010D969F938F930E94E50A80915B01F8
:1004400090915C01A0915D01B0915E01AC01BD0194
:10045000440F551F661F771F440F551F661F771FD8
:10046000440F551F661F771F841B950BA60BB70BF8
:100470000FB6F894DEBF0FBECDBF85599F4FAF4F6B
:10048000BF4FBF93AF939F938F931F930F93CE0153
:1004900042969F938F930E94E50A60E080E00E945D
:1004A00085088EE191E00E94470A809108010FB60D
:1004B000F894DEBF0FBECDBF813049F460E083E227
:1004C0000E94850884E291E00E94470A08C060E02B
:1004D00083E20E94850887E291E00E94470A6AE071
:1004E00080E00E9485088AE291E00E94470A69E163
:1004F00080E00E94850880E391E00E94470A68E25C
:1005000080E00E94850886E391E00E94470A6AE045
:1005100083E20E948508CE0105960E94470A6AE0A0
:1005200086E40E948508CE010D960E94470A6AE083
:100530008AE50E9485088CE391E00E94470A69E100
:1005400086E40E948508CE0107960E94470A69E169
:100550008AE50E94850881E491E00E94470A68E2EA
:1005600086E40E948508CE0142960E94470A68E20E
:100570008AE50E94850888E491E00E94470A69E1C3
:1005800083E20E948508CE0103960E94470A68E232
:1005900083E20E948508CE0101960E94470A80915D
:1005A000000190910101019781F468E282E30E94C9
:1005B00085088BE491E00E94470A60E082E30E9494
:1005C00085088EE491E00E94470A80910001909195
:1005D0000101029781F460E082E30E9485088BE4C8
:1005E00091E00E94470A6AE082E30E9485088EE457
:1005F00091E00E94470A80910001909101010397C8
:1006000081F46AE082E30E9485088BE491E00E9415
:10061000470A69E182E30E9485088EE491E00E9426
:10062000470A8091000190910101049781F469E1EA
:1006300082E30E9485088BE491E00E94470A68E209
:1006400082E30E9485088EE491E00E94470A0E949E
:1006500007090E94570810926C0166960FB6F8942D
:10066000DEBF0FBECDBFDF91CF911F910F910895D7
:10067000FC012081222309F4C4C01082809163010F
:1006800090916401A0916501B0916601AC01BD013A
:10069000440F551F661F771F840F951FA61FB71F96
:1006A000AC01BD01440F551F661F771F40935F01CA
:1006B0005093600160936101709362011092630135
:1006C00010926401109265011092660180915B01A5
:1006D00090915C01A0915D01B0915E01AC01BD0102
:1006E000440F551F661F771F440F551F661F771F46
:1006F000440F551F661F771F841B950BA60BB70B66
:1007000085599F4FAF4FBF4F4497A105B10520F0CA
:100710008FEF8093B4000895209178003091790094
:1007200040E050E068E17CE98FE090E00E94B70A89
:10073000DA01C901885E9340A109B1098C32914068
:10074000A105B10594F4489B0CC080915F01909184
:100750006001A0916101B0916201892B8A2B8B2BE2
:1007600021F08FEF8093B4000895489B0FC08091D3
:100770005F0190916001A0916101B0916201892BAC
:100780008A2B8B2B31F480E090E005C080E090E074
:1007900002C081E090E00197D9F02091780030917B
:1007A000790040E050E068E17CE98FE090E00E9451
:1007B000B70ADA01C901885E9340A109B1098C32F8
:1007C0009140A105B10524F485E58093B400089516
:1007D000209178003091790040E050E068E17CE9B8
:1007E0008FE090E00E94B70ADA01C901885E934069
:1007F000A109B1098C329140A105B10514F0109204
:10080000B4000895CF92DF92EF92FF920F931F935F
:10081000CF93DF93CDB7DEB762970FB6F894DEBF04
:100820000FBECDBF82E1E9E0F1E0DE01119601905B
:100830000D928A95E1F7E0915A01EE0FFF0B81E0EE
:1008400090E08C0F9D1FE80FF91F808185B9E09122
:100850005A01EE0FFF0B81E090E08C0F9D1FE80F17
:10086000F91F8081918188279170969587958BB922
:1008700080910801813009F0C7C080915A0184300D
:10088000E4F50091670110916801209169013091B0
:100890006A01C0905601D0905701E0905801F09045
:1008A00059010C191D092E093F094091020150916F
:1008B0000301569547955695479560E070E00417FB
:1008C00015072607370708F4A5C18F5F80935A01E3
:1008D0008091020190910301969587959695879551
:1008E000C80ED91EE11CF11CC0925601D0925701CE
:1008F000E0925801F09259018DC18530A4F5009124
:100900006701109168012091690130916A01C090DE
:100910005601D0905701E0905801F09059010C1900
:100920001D092E093F09409104015091050160E025
:1009300070E0041715072607370708F46BC18F5FAF
:1009400080935A018091040190910501C80ED91E2F
:10095000E11CF11CC0925601D0925701E09258015F
:10096000F092590157C18930E4F500916701109167
:1009700068012091690130916A01C0905601D090C0
:100980005701E0905801F09059010C191D092E09EA
:100990003F0940910601509107015695479556959C
:1009A000479560E070E0041715072607370708F43D
:1009B00031C18F5F80935A018091060190910701A8
:1009C0009695879596958795C80ED91EE11CF11CC2
:1009D000C0925601D0925701E0925801F09259010D
:1009E00019C110925A018091670190916801A091FC
:1009F0006901B0916A018093560190935701A093C9
:100A00005801B093590106C160915F017091600176
:100A100080916101909162010F2EFCE3CF2ED12CC9
:100A2000E12CF12CF02DA70196010E94950A890175
:100A30009A010F5F1F4F2F4F3F4F68EE73E0069FE5
:100A4000C001079F900D169F900D112490930301F4
:100A50008093020160915F0170916001809161015A
:100A600090916201A70196010E94950A68E17CEFCE
:100A7000269FC001279F900D369F900D1124885D01
:100A80009C4D909307018093060180915A01843018
:100A9000E4F5C0906701D0906801E0906901F090A2
:100AA0006A0100915601109157012091580130912F
:100AB0005901C01AD10AE20AF30A40910201509189
:100AC0000301569547955695479560E070E0C4162A
:100AD000D506E606F70608F49DC08F5F80935A019D
:100AE000809102019091030196958795969587953F
:100AF000080F191F211D311D009356011093570136
:100B0000209358013093590185C08530A4F5009198
:100B10006701109168012091690130916A01C090CC
:100B20005601D0905701E0905801F09059010C19EE
:100B30001D092E093F09409104015091050160E013
:100B400070E0041715072607370708F463C08F5FA6
:100B500080935A018091040190910501C80ED91E1D
:100B6000E11CF11CC0925601D0925701E09258014D
:100B7000F09259014FC08930DCF500916701109166
:100B800068012091690130916A01C0905601D090AE
:100B90005701E0905801F09059010C191D092E09D8
:100BA0003F0940910601509107015695479556958A
:100BB000479560E070E0041715072607370750F1E6
:100BC0008F5F80935A01809106019091070196955D
:100BD000879596958795C80ED91EE11CF11CC09289
:100BE0005601D0925701E0925801F092590112C07B
:100BF00010925A018091670190916801A09169015A
:100C0000B0916A018093560190935701A0935801C7
:100C1000B093590162960FB6F894DEBF0FBECDBFF8
:100C2000DF91CF911F910F91FF90EF90DF90CF90C8
:100C300008951F920F920FB60F9211248F939F93D6
:100C4000AF93BF938091630190916401A09165017E
:100C5000B09166010196A11DB11D8093630190932F
:100C60006401A0936501B0936601BF91AF919F911C
:100C70008F910F900FBE0F901F9018951F920F929B
:100C80000FB60F9211244F935F936F937F938F93BF
:100C90009F93AF93BF93369B10C080916701909153
:100CA0006801A0916901B0916A018093520190930B
:100CB0005301A0935401B093550136992CC08091F3
:100CC000670190916801A0916901B0916A0140911A
:100CD0005201509153016091540170915501841B50
:100CE000950BA60BB70B80935B0190935C01A093CF
:100CF0005D01B0935E018091670190916801A091C0
:100D00006901B0916A018093520190935301A093BD
:100D10005401B0935501BF91AF919F918F917F91F5
:100D20006F915F914F910F900FBE0F901F9018958C
:100D30001F920F920FB60F9211242F938F939F93B0
:100D40004E9B19C04E99FECF8091000190910101F8
:100D50000196909301018093000180910001909190
:100D60000101059708F4AAC081E090E09093010189
:100D700080930001A3C04D9B51C0809100019091D0
:100D80000101019719F482E0809308018091060126
:100D900090910701803D974080F0809100019091F3
:100DA0000101029751F48091060190910701885E3C
:100DB00093409093070180930601809104019091E4
:100DC0000501803D974080F08091000190910101E4
:100DD000039751F48091040190910501885E93403E
:100DE0009093050180930401809102019091030189
:100DF000803D974008F462C080910001909101010C
:100E0000049709F05BC08091020190910301885E14
:100E10009340909303018093020150C04C9B4EC0BD
:100E20008091000190910101019719F481E0809374
:100E30000801809106019091070181349F4180F45F
:100E40008091000190910101029751F48091060177
:100E50009091070188519C4F909307018093060160
:100E6000809104019091050181349F4180F480912B
:100E7000000190910101039751F480910401909138
:100E8000050188519C4F9093050180930401809146
:100E900002019091030181349F4180F4809100010F
:100EA00090910101049751F4809102019091030106
:100EB00088519C4F90930301809302019F918F91E1
:100EC0002F910F900FBE0F901F9018951F920F92A9
:100ED0000FB60F9211242F933F934F935F936F930D
:100EE0007F938F939F93AF93BF93EF93FF938091E3
:100EF000670190916801A0916901B0916A01019622
:100F0000A11DB11D8093670190936801A0936901B1
:100F1000B0936A01609167017091680180916901E5
:100F200090916A0128EE33E040E050E00E94950A7B
:100F3000672B682B692B19F481E080936C01609119
:100F40006701709168018091690190916A0128E8B8
:100F500033E140E050E00E94950A672B682B692B33
:100F600019F481E080936B01FF91EF91BF91AF91F4
:100F70009F918F917F916F915F914F913F912F91B1
:100F80000F900FBE0F901F9018958EE387B98FEFCB
:100F900084B988E88AB918B81BB889E080936900D9
:100FA00023E02DBB86E08093680080E780936D008E
:100FB00080E480936C0092E094BD25BD29EF27BDAD
:100FC00090936E0080937C0087EE80937A0010925D
:100FD0007B0010927E0083E28093B00084E08093D7
:100FE000B10080E88093B40078940E948E0820E0DD
:100FF00048E065E088E690E00E9417090E9402043C
:101000008CE691E00E9473018BE691E00E94380328
:10101000F5CF669566956695E82FF0E080E8689FC5
:10102000E00DF11D1124EA58FE4F408308956695A6
:1010300066956695E82FF0E080E8689FE00DF11D69
:101040001124EA58FE4F808108950F931F93CF9388
:10105000DF93C82F8B01D42F0E94770A88E70E9464
:10106000890A8C2F0E94890AC0E007C0F801EC0FA2
:10107000F11D80810E94890ACF5FCD17B8F30E94CD
:10108000810ADF91CF911F910F910895CF93DF9344
:101090001F92CDB7DEB7898341E0BE016F5F7F4FFE
:1010A00080E00E9425080F90DF91CF910895CF93A3
:1010B00081E20E94460880E00E9446088FE70E9475
:1010C000460882E20E94460880E00E94460887E0C7
:1010D0000E944608C0E00BC080E1C89FB001112407
:1010E0006A587E4F40E180E40E942508CF5FC034FB
:1010F00098F3CF910895882314F080936D0108959B
:10110000803410F480936E010895CF93C62F0E940F
:101110007B088C2F0E948008CF9108950E945E0A60
:101120008EEA0E94460885ED0E94460880EF0E94E4
:10113000460888EA0E9446088FE30E94460883ED2D
:101140000E94460880E00E9446088DE80E944608FA
:1011500084E10E94460880E40E94460880E20E94E2
:10116000460880E00E94460881EA0E94460888EC12
:101170000E9446088AED0E94460882E10E944608C5
:1011800081E80E9446088FEF0E94460889ED0E9480
:10119000460881EF0E9446088BED0E94460880E2D7
:1011A0000E94460884EA0E94460886EA0E94460891
:1011B0008EE20E9446088FEA0E94460860E080E0C6
:1011C0000E948508EDE6F1E086EA828317821682A6
:1011D00015821182108208951F93CF93DF93182FE9
:1011E000D0E00BC0412F6D2F8C2F0E940908CF5FDC
:1011F00001C0C0E0CC23B4F7D85FD034D0F3DF9186
:10120000CF911F91089580E00E94EC08089580918D
:101210006F01873A21F486EA80936F0103C087EA61
:1012200080936F0180916F010E94460808956623A4
:10123000E4F04034D0F42230C0F4EDE6F1E09483E1
:1012400083836583468350E041505109CA01992345
:101250000CF407969595879595958795959587951F
:10126000EDE6F1E08F5F8783208708954F925F92CC
:101270006F927F928F929F92AF92BF92CF92DF92A6
:10128000EF92FF920F931F93CF93DF93ADE6B1E000
:101290005C9011964C901197805215969C911597E1
:1012A00017962C911797929F900111242F5F3F4F13
:1012B000829FA001839F500D11241396ED91FC9104
:1012C00014975A018FEFA81AB80AE40FF51F74900B
:1012D000842D8770982E642C812C5FC0662D852DFF
:1012E0000E9485087501E80CF11C670181E0C81AAD
:1012F000D10810E041C08091700190917101FC0112
:10130000EE0DFF1D2491492D50E030E0092C02C064
:10131000220F331F0A94E2F7022F8820A1F0FC016C
:10132000EC0DFD1DE49188E090E0841B950BF0E04E
:1013300002C0F595E7958A95E2F70E2F022B809172
:101340007401C80ED11C80917501813039F4EDE62D
:10135000F1E0618180810E941708082BCDE6D1E081
:101360006981888191E0980F9883402F0E94090835
:101370008F81E80EF11C1F5F171508F4BCCF809118
:101380007501811107C0EDE6F1E040E061818081E7
:101390000E94090888E0680E839480917401881681
:1013A00008F49CCF242D26952695269530E0809133
:1013B000730190E0840D911D0197AC0112F4495F17
:1013C0005F4F5595479555954795559547952417E2
:1013D000350709F445C08FE3861508F441C0662D32
:1013E000852D0E948508A80CB11C81E0A81AB108BF
:1013F00000E029C0CDE6D1E0F98018816F2D812F62
:101400000E941708EB81FC81EA0DFB1D449128E046
:1014100030E02919310950E002C0559547952A95C9
:10142000E2F7482B9885913009F4482BCDE6D1E0BE
:1014300081E0810F88836F2D812F0E9409088F81A1
:10144000A80EB11C0F5F0715A8F2809175018111DC
:1014500007C0EDE6F1E040E0618180810E9409086B
:10146000852D870D642D8F5F0E948508DF91CF91B8
:101470001F910F91FF90EF90DF90CF90BF90AF90B2
:101480009F908F907F906F905F904F900895CF9333
:10149000DF93EC010DC0EDE6F1E09081258130E0B5
:1014A000290F311D2038310534F421960E94360968
:1014B00088818111F0CFDF91CF91089587B180614C
:1014C00087B987B1806287B988B1806188B988B1EE
:1014D000806288B91092B90088E48093B80084E0F3
:1014E0008093BC0008958091B900887F089584EAB4
:1014F0008093BC008091BC008823E4F70E94730AAB
:10150000089585ED8093BC008091BC0084FDFCCFE4
:1015100008958093BB0084E88093BC008091BC0058
:101520008823E4F70E94730A0895A1E21A2EAA1BE9
:10153000BB1BFD010DC0AA1FBB1FEE1FFF1FA21783
:10154000B307E407F50720F0A21BB30BE40BF50B80
:10155000661F771F881F991F1A9469F76095709509
:10156000809590959B01AC01BD01CF010895052E9A
:1015700097FB1EF400940E94CE0A57FD07D00E94EC
:10158000950A07FC03D04EF40C94CE0A5095409572
:10159000309521953F4F4F4F5F4F0895909580951F
:1015A000709561957F4F8F4F9F4F0895A29FB00117
:1015B000B39FC001A39F700D811D1124911DB29F87
:1015C000700D811D1124911D0895AEE0B0E0EBEE89
:1015D000FAE00C94A60D0D891E8986E08C831A838F
:1015E00009838FEF9FE79E838D83AE01475E5F4F38
:1015F0006F89788DCE0101960E94070BEF81F885E7
:10160000E00FF11F10822E96E4E00C94C20DABE0C7
:10161000B0E0EDE0FBE00C94980D6C017B018A01D9
:10162000FC0117821682838181FFCCC1CE01019615
:101630003C01F6019381F70193FD859193FF819120
:101640007F01882309F4BAC1853239F493FD85916D
:1016500093FF81917F01853229F4B60190E00E94C9
:10166000FE0CE7CF912C212C312CFFE1F315D8F0A3
:101670008B3279F038F4803279F08332A1F4232D63
:1016800020611DC08D3261F0803369F4232D21600B
:1016900016C0832D8260382EE32DE4603E2E2AC0D2
:1016A000F32DF8601DC037FC2DC020ED280F2A3027
:1016B00040F08E32B9F436FC81C1232D2064322EE5
:1016C00019C036FE06C08AE0989E200D1124922E85
:1016D00011C0EAE02E9E200D1124222EF32DF0627F
:1016E0003F2E08C08C3621F4832D8068382E02C02E
:1016F000883641F4F70193FD859193FF81917F0135
:101700008111B3CF982F9F7D9554933028F40C5FAF
:101710001F4F9FE399830DC0833631F0833771F0FB
:10172000833509F059C021C0F801808189830E5F9B
:101730001F4F88248394912C530113C02801F2E099
:101740004F0E511CF801A080B18036FE03C0692DF8
:1017500070E002C06FEF7FEFC5010E94F30C4C01F7
:101760008201F32DFF773F2E16C0280122E0420EA2
:10177000511CF801A080B18036FE03C0692D70E0D5
:1017800002C06FEF7FEFC5010E94E80C4C01F32D02
:10179000F0683F2E820133FC1BC0822D90E088163A
:1017A0009906B0F4B60180E290E00E94FE0C2A9403
:1017B000F4CFF50137FC859137FE81915F01B601C9
:1017C00090E00E94FE0C21102A9421E0821A9108D8
:1017D0008114910471F7E8C0843611F0893641F51F
:1017E000F80137FE07C060817181828193810C5FAF
:1017F0001F4F08C060817181072E000C880B990B68
:101800000E5F1F4FF32DFF763F2E97FF09C0909577
:101810008095709561957F4F8F4F9F4FF0683F2E59
:101820002AE030E0A3010E943A0D882E861845C0B8
:10183000853731F4232D2F7EB22E2AE030E025C0EB
:10184000932D997FB92E8F36C1F018F4883579F031
:10185000B5C0803719F0883721F0B0C0E92FE061BA
:10186000BE2EB4FE0DC0FB2DF460BF2E09C034FEA9
:101870000AC0292F2660B22E06C028E030E005C03D
:1018800020E130E002C020E132E0F801B7FE07C0FD
:1018900060817181828193810C5F1F4F06C06081DE
:1018A000718180E090E00E5F1F4FA3010E943A0D0E
:1018B000882E8618FB2DFF773F2E36FE0DC0232D78
:1018C0002E7FA22E891458F434FE0BC032FC09C0BE
:1018D000832D8E7EA82E05C0B82CA32C03C0B82C57
:1018E00001C0B92CA4FE0FC0FE01E80DF11D8081DE
:1018F000803321F49A2D997EA92E09C0A2FE06C03C
:10190000B394B39404C08A2D867809F0B394A3FCF1
:1019100011C0A0FE06C0B21488F4280C922C9B18AB
:101920000EC0B21460F4B60180E290E00E94FE0C9A
:10193000B394F7CFB21418F42B1802C0982C212CB2
:10194000A4FE10C0B60180E390E00E94FE0CA2FE4F
:1019500017C0A1FC03C088E790E002C088E590E0D2
:10196000B6010CC08A2D867859F0A1FE02C08BE228
:1019700001C080E2A7FC8DE2B60190E00E94FE0C5F
:10198000891438F4B60180E390E00E94FE0C9A942A
:10199000F7CF8A94F301E80DF11D8081B60190E044
:1019A0000E94FE0C8110F5CF222009F442CEB60130
:1019B00080E290E00E94FE0C2A94F6CFF601868128
:1019C000978102C08FEF9FEF2B96E2E10C94B40D4C
:1019D000FC010590615070400110D8F780959095FA
:1019E0008E0F9F1F0895FC016150704001900110FF
:1019F000D8F7809590958E0F9F1F08950F931F9392
:101A0000CF93DF93FB01238121FD03C08FEF9FEF75
:101A10002CC022FF16C04681578124813581421790
:101A2000530744F4A081B1819D012F5F3F4F318363
:101A300020838C93268137812F5F3F4F3783268306
:101A400014C08B01EC01FB010084F185E02D0995A8
:101A5000892BE1F6D80116968D919C9117970196E6
:101A600017969C938E931697CE01DF91CF911F917D
:101A70000F910895FA01AA27283051F1203181F100
:101A8000E8946F936E7F6E5F7F4F8F4F9F4FAF4F86
:101A9000B1E03ED0B4E03CD0670F781F891F9A1F99
:101AA000A11D680F791F8A1F911DA11D6A0F711D4D
:101AB000811D911DA11D20D009F468943F912AE059
:101AC000269F11243019305D3193DEF6CF01089541
:101AD000462F4770405D4193B3E00FD0C9F7F6CF72
:101AE000462F4F70405D4A3318F0495D31FD40523A
:101AF000419302D0A9F7EACFB4E0A69597958795D0
:101B000077956795BA95C9F70097610571050895AE
:101B10009B01AC010A2E069457954795379527955A
:101B2000BA95C9F7620F731F841F951FA01D0895F2
:101B30002F923F924F925F926F927F928F929F92DD
:101B4000AF92BF92CF92DF92EF92FF920F931F93CB
:101B5000CF93DF93CDB7DEB7CA1BDB0B0FB6F8947C
:101B6000DEBF0FBECDBF09942A88398848885F84BC
:101B70006E847D848C849B84AA84B984C884DF802D
:101B8000EE80FD800C811B81AA81B981CE0FD11D11
:101B90000FB6F894DEBF0FBECDBFED010895F894E7
:021BA000FFCF75
:101BA20001008813E803B80B010F000700030001CE
:101BB200000001F0007000300010002575004D6F2C
:101BC200646F3A00204D00204100542E20566D00D3
:101BD200542E20416D00542E20566400204C7578FE
:101BE2000020632F6D696E00202500202000203C1C
:021BF2000000F1
:00000001FF
